{
  "contractName": "Memes",
  "abi": [
    {
      "inputs": [],
      "stateMutability": "nonpayable",
      "type": "constructor"
    },
    {
      "anonymous": false,
      "inputs": [
        {
          "indexed": true,
          "internalType": "address",
          "name": "account",
          "type": "address"
        },
        {
          "indexed": true,
          "internalType": "address",
          "name": "operator",
          "type": "address"
        },
        {
          "indexed": false,
          "internalType": "bool",
          "name": "approved",
          "type": "bool"
        }
      ],
      "name": "ApprovalForAll",
      "type": "event"
    },
    {
      "anonymous": false,
      "inputs": [
        {
          "indexed": false,
          "internalType": "string",
          "name": "_name",
          "type": "string"
        },
        {
          "indexed": false,
          "internalType": "string",
          "name": "_symbol",
          "type": "string"
        },
        {
          "indexed": false,
          "internalType": "contract LTS",
          "name": "_LTS",
          "type": "address"
        },
        {
          "indexed": false,
          "internalType": "address",
          "name": "_to",
          "type": "address"
        }
      ],
      "name": "NewLTSCreated",
      "type": "event"
    },
    {
      "anonymous": false,
      "inputs": [
        {
          "indexed": true,
          "internalType": "address",
          "name": "previousOwner",
          "type": "address"
        },
        {
          "indexed": true,
          "internalType": "address",
          "name": "newOwner",
          "type": "address"
        }
      ],
      "name": "OwnershipTransferred",
      "type": "event"
    },
    {
      "anonymous": false,
      "inputs": [
        {
          "indexed": true,
          "internalType": "address",
          "name": "operator",
          "type": "address"
        },
        {
          "indexed": true,
          "internalType": "address",
          "name": "from",
          "type": "address"
        },
        {
          "indexed": true,
          "internalType": "address",
          "name": "to",
          "type": "address"
        },
        {
          "indexed": false,
          "internalType": "uint256[]",
          "name": "ids",
          "type": "uint256[]"
        },
        {
          "indexed": false,
          "internalType": "uint256[]",
          "name": "values",
          "type": "uint256[]"
        }
      ],
      "name": "TransferBatch",
      "type": "event"
    },
    {
      "anonymous": false,
      "inputs": [
        {
          "indexed": true,
          "internalType": "address",
          "name": "operator",
          "type": "address"
        },
        {
          "indexed": true,
          "internalType": "address",
          "name": "from",
          "type": "address"
        },
        {
          "indexed": true,
          "internalType": "address",
          "name": "to",
          "type": "address"
        },
        {
          "indexed": false,
          "internalType": "uint256",
          "name": "id",
          "type": "uint256"
        },
        {
          "indexed": false,
          "internalType": "uint256",
          "name": "value",
          "type": "uint256"
        }
      ],
      "name": "TransferSingle",
      "type": "event"
    },
    {
      "anonymous": false,
      "inputs": [
        {
          "indexed": false,
          "internalType": "string",
          "name": "value",
          "type": "string"
        },
        {
          "indexed": true,
          "internalType": "uint256",
          "name": "id",
          "type": "uint256"
        }
      ],
      "name": "URI",
      "type": "event"
    },
    {
      "inputs": [
        {
          "internalType": "address",
          "name": "account",
          "type": "address"
        },
        {
          "internalType": "uint256",
          "name": "id",
          "type": "uint256"
        }
      ],
      "name": "balanceOf",
      "outputs": [
        {
          "internalType": "uint256",
          "name": "",
          "type": "uint256"
        }
      ],
      "stateMutability": "view",
      "type": "function",
      "constant": true
    },
    {
      "inputs": [
        {
          "internalType": "address[]",
          "name": "accounts",
          "type": "address[]"
        },
        {
          "internalType": "uint256[]",
          "name": "ids",
          "type": "uint256[]"
        }
      ],
      "name": "balanceOfBatch",
      "outputs": [
        {
          "internalType": "uint256[]",
          "name": "",
          "type": "uint256[]"
        }
      ],
      "stateMutability": "view",
      "type": "function",
      "constant": true
    },
    {
      "inputs": [
        {
          "internalType": "uint256",
          "name": "",
          "type": "uint256"
        }
      ],
      "name": "hashes",
      "outputs": [
        {
          "internalType": "string",
          "name": "",
          "type": "string"
        }
      ],
      "stateMutability": "view",
      "type": "function",
      "constant": true
    },
    {
      "inputs": [
        {
          "internalType": "address",
          "name": "account",
          "type": "address"
        },
        {
          "internalType": "address",
          "name": "operator",
          "type": "address"
        }
      ],
      "name": "isApprovedForAll",
      "outputs": [
        {
          "internalType": "bool",
          "name": "",
          "type": "bool"
        }
      ],
      "stateMutability": "view",
      "type": "function",
      "constant": true
    },
    {
      "inputs": [],
      "name": "owner",
      "outputs": [
        {
          "internalType": "address",
          "name": "",
          "type": "address"
        }
      ],
      "stateMutability": "view",
      "type": "function",
      "constant": true
    },
    {
      "inputs": [],
      "name": "renounceOwnership",
      "outputs": [],
      "stateMutability": "nonpayable",
      "type": "function"
    },
    {
      "inputs": [
        {
          "internalType": "address",
          "name": "from",
          "type": "address"
        },
        {
          "internalType": "address",
          "name": "to",
          "type": "address"
        },
        {
          "internalType": "uint256[]",
          "name": "ids",
          "type": "uint256[]"
        },
        {
          "internalType": "uint256[]",
          "name": "amounts",
          "type": "uint256[]"
        },
        {
          "internalType": "bytes",
          "name": "data",
          "type": "bytes"
        }
      ],
      "name": "safeBatchTransferFrom",
      "outputs": [],
      "stateMutability": "nonpayable",
      "type": "function"
    },
    {
      "inputs": [
        {
          "internalType": "address",
          "name": "from",
          "type": "address"
        },
        {
          "internalType": "address",
          "name": "to",
          "type": "address"
        },
        {
          "internalType": "uint256",
          "name": "id",
          "type": "uint256"
        },
        {
          "internalType": "uint256",
          "name": "amount",
          "type": "uint256"
        },
        {
          "internalType": "bytes",
          "name": "data",
          "type": "bytes"
        }
      ],
      "name": "safeTransferFrom",
      "outputs": [],
      "stateMutability": "nonpayable",
      "type": "function"
    },
    {
      "inputs": [
        {
          "internalType": "address",
          "name": "operator",
          "type": "address"
        },
        {
          "internalType": "bool",
          "name": "approved",
          "type": "bool"
        }
      ],
      "name": "setApprovalForAll",
      "outputs": [],
      "stateMutability": "nonpayable",
      "type": "function"
    },
    {
      "inputs": [
        {
          "internalType": "bytes4",
          "name": "interfaceId",
          "type": "bytes4"
        }
      ],
      "name": "supportsInterface",
      "outputs": [
        {
          "internalType": "bool",
          "name": "",
          "type": "bool"
        }
      ],
      "stateMutability": "view",
      "type": "function",
      "constant": true
    },
    {
      "inputs": [],
      "name": "tokenContract",
      "outputs": [
        {
          "internalType": "contract LTS",
          "name": "",
          "type": "address"
        }
      ],
      "stateMutability": "view",
      "type": "function",
      "constant": true
    },
    {
      "inputs": [
        {
          "internalType": "address",
          "name": "newOwner",
          "type": "address"
        }
      ],
      "name": "transferOwnership",
      "outputs": [],
      "stateMutability": "nonpayable",
      "type": "function"
    },
    {
      "inputs": [
        {
          "internalType": "uint256",
          "name": "",
          "type": "uint256"
        }
      ],
      "name": "uri",
      "outputs": [
        {
          "internalType": "string",
          "name": "",
          "type": "string"
        }
      ],
      "stateMutability": "view",
      "type": "function",
      "constant": true
    },
    {
      "inputs": [
        {
          "internalType": "address payable",
          "name": "from",
          "type": "address"
        },
        {
          "internalType": "address",
          "name": "to",
          "type": "address"
        },
        {
          "internalType": "uint256",
          "name": "id",
          "type": "uint256"
        },
        {
          "internalType": "uint256",
          "name": "amount",
          "type": "uint256"
        },
        {
          "internalType": "uint256",
          "name": "price",
          "type": "uint256"
        },
        {
          "internalType": "string",
          "name": "_hash",
          "type": "string"
        },
        {
          "internalType": "string",
          "name": "_uri",
          "type": "string"
        }
      ],
      "name": "mint",
      "outputs": [
        {
          "internalType": "bool",
          "name": "approved",
          "type": "bool"
        }
      ],
      "stateMutability": "payable",
      "type": "function",
      "payable": true
    },
    {
      "inputs": [],
      "name": "getMemesCount",
      "outputs": [
        {
          "internalType": "uint256",
          "name": "count",
          "type": "uint256"
        }
      ],
      "stateMutability": "view",
      "type": "function",
      "constant": true
    },
    {
      "inputs": [
        {
          "internalType": "address payable",
          "name": "from",
          "type": "address"
        },
        {
          "internalType": "address",
          "name": "to",
          "type": "address"
        },
        {
          "internalType": "uint256",
          "name": "id",
          "type": "uint256"
        },
        {
          "internalType": "uint256",
          "name": "amount",
          "type": "uint256"
        },
        {
          "internalType": "uint256",
          "name": "price",
          "type": "uint256"
        }
      ],
      "name": "safeTransferFromWithProvision",
      "outputs": [
        {
          "internalType": "bool",
          "name": "approved",
          "type": "bool"
        }
      ],
      "stateMutability": "payable",
      "type": "function",
      "payable": true
    },
    {
      "inputs": [],
      "name": "withdrawEth1",
      "outputs": [],
      "stateMutability": "nonpayable",
      "type": "function"
    }
  ],
  "bytecode": "0x6080604052600980546001600160a01b03191673c939c6a8a525569260fe347aeff9bbf1c1f13f9f1790553480156200003757600080fd5b50604051806060016040528060278152602001620033d1602791396200005d81620000cf565b50620000726200006c620000e8565b620000ec565b60405162000080906200013e565b6200008b90620001f2565b604051809103906000f080158015620000a8573d6000803e3d6000fd5b50600880546001600160a01b0319166001600160a01b039290921691909117905562000275565b8051620000e49060029060208401906200014c565b5050565b3390565b600380546001600160a01b038381166001600160a01b0319831681179093556040519116919082907f8be0079c531659141344cd1fd0a4f28419497f9722a3daafe3b4186f6b6457e090600090a35050565b61120d80620021c483390190565b8280546200015a9062000238565b90600052602060002090601f0160209004810192826200017e5760008555620001c9565b82601f106200019957805160ff1916838001178555620001c9565b82800160010185558215620001c9579182015b82811115620001c9578251825591602001919060010190620001ac565b50620001d7929150620001db565b5090565b5b80821115620001d75760008155600101620001dc565b6040808252601190820152701319585c9b88151a5b594814da185c9959607a1b6060820152608060208201819052600390820152624c545360e81b60a082015260c00190565b6002810460018216806200024d57607f821691505b602082108114156200026f57634e487b7160e01b600052602260045260246000fd5b50919050565b611f3f80620002856000396000f3fe6080604052600436106100fd5760003560e01c80636375243f11610095578063bfede86011610064578063bfede86014610293578063e5f6e261146102a8578063e985e9c5146102bd578063f242432a146102dd578063f2fde38b146102fd576100fd565b80636375243f14610236578063715018a6146102495780638da5cb5b1461025e578063a22cb46514610273576100fd565b80634bd2d291116100d15780634bd2d291146101b45780634e1273f4146101c7578063501895ae146101f457806355a373d614610214576100fd565b8062fdd58e1461010257806301ffc9a7146101385780630e89341c146101655780632eb2c2d614610192575b600080fd5b34801561010e57600080fd5b5061012261011d3660046115c5565b61031d565b60405161012f9190611cdf565b60405180910390f35b34801561014457600080fd5b506101586101533660046116cc565b610374565b60405161012f91906118ba565b34801561017157600080fd5b50610185610180366004611704565b6103ba565b60405161012f91906118c5565b34801561019e57600080fd5b506101b26101ad366004611487565b61044e565b005b6101586101c236600461135c565b6104ac565b3480156101d357600080fd5b506101e76101e23660046115f0565b6104f5565b60405161012f9190611879565b34801561020057600080fd5b5061018561020f366004611704565b610615565b34801561022057600080fd5b506102296106c1565b60405161012f919061179e565b6101586102443660046113ac565b6106d0565b34801561025557600080fd5b506101b2610848565b34801561026a57600080fd5b50610229610893565b34801561027f57600080fd5b506101b261028e366004611598565b6108a3565b34801561029f57600080fd5b506101b2610971565b3480156102b457600080fd5b50610122610a2c565b3480156102c957600080fd5b506101586102d836600461144f565b610a32565b3480156102e957600080fd5b506101b26102f8366004611531565b610a60565b34801561030957600080fd5b506101b2610318366004611339565b610ab7565b60006001600160a01b03831661034e5760405162461bcd60e51b815260040161034590611974565b60405180910390fd5b506000908152602081815260408083206001600160a01b03949094168352929052205490565b60006001600160e01b03198216636cdb3d1360e11b14806103a557506001600160e01b031982166303a24d0760e21b145b806103b457506103b482610b28565b92915050565b6060600280546103c990611da3565b80601f01602080910402602001604051908101604052809291908181526020018280546103f590611da3565b80156104425780601f1061041757610100808354040283529160200191610442565b820191906000526020600020905b81548152906001019060200180831161042557829003601f168201915b50505050509050919050565b610456610b41565b6001600160a01b0316856001600160a01b0316148061047c575061047c856102d8610b41565b6104985760405162461bcd60e51b815260040161034590611abc565b6104a58585858585610b45565b5050505050565b60006104b98560016108a3565b6104e1868686866040518060400160405280600381526020016203078360ec1b815250610a60565b6104eb8686610a32565b9695505050505050565b606081518351146105185760405162461bcd60e51b815260040161034590611c0d565b6000835167ffffffffffffffff81111561054257634e487b7160e01b600052604160045260246000fd5b60405190808252806020026020018201604052801561056b578160200160208202803683370190505b50905060005b845181101561060d576105d285828151811061059d57634e487b7160e01b600052603260045260246000fd5b60200260200101518583815181106105c557634e487b7160e01b600052603260045260246000fd5b602002602001015161031d565b8282815181106105f257634e487b7160e01b600052603260045260246000fd5b602090810291909101015261060681611dde565b9050610571565b509392505050565b6004818154811061062557600080fd5b90600052602060002001600091509050805461064090611da3565b80601f016020809104026020016040519081016040528092919081815260200182805461066c90611da3565b80156106b95780601f1061068e576101008083540402835291602001916106b9565b820191906000526020600020905b81548152906001019060200180831161069c57829003601f168201915b505050505081565b6008546001600160a01b031681565b60006005836040516106e29190611782565b9081526040519081900360200190205460ff16156107125760405162461bcd60e51b815260040161034590611b8d565b600480546001810182556000919091528351610755917f8a35acfbc15ff81a39ae7d344fd709f28e8600b4aa8c65c6b64bfe7fe36bd19b019060208601906111c9565b5060045460009061076890600190611d5c565b60408051602081019091526000815290915061078633898987610d16565b60016005866040516107989190611782565b908152604051908190036020018120805492151560ff19909316929092179091556008546323b872dd60e01b82526001600160a01b0316906323b872dd906107e890339030908c90600401611810565b602060405180830381600087803b15801561080257600080fd5b505af1158015610816573d6000803e3d6000fd5b505050506040513d601f19601f8201168201806040525081019061083a91906116b0565b505050979650505050505050565b610850610b41565b6001600160a01b0316610861610893565b6001600160a01b0316146108875760405162461bcd60e51b815260040161034590611b58565b6108916000610e05565b565b6003546001600160a01b03165b90565b816001600160a01b03166108b5610b41565b6001600160a01b031614156108dc5760405162461bcd60e51b815260040161034590611bc4565b80600160006108e9610b41565b6001600160a01b03908116825260208083019390935260409182016000908120918716808252919093529120805460ff19169215159290921790915561092d610b41565b6001600160a01b03167f17307eab39ab6107e8899845ad3d59bd9653f200f220920489ca2b5937696c318360405161096591906118ba565b60405180910390a35050565b610979610b41565b6001600160a01b031661098a610893565b6001600160a01b0316146109b05760405162461bcd60e51b815260040161034590611b58565b6040514790600090339083906109c5906108a0565b60006040518083038185875af1925050503d8060008114610a02576040519150601f19603f3d011682016040523d82523d6000602084013e610a07565b606091505b5050905080610a285760405162461bcd60e51b815260040161034590611a05565b5050565b60045490565b6001600160a01b03918216600090815260016020908152604080832093909416825291909152205460ff1690565b610a68610b41565b6001600160a01b0316856001600160a01b03161480610a8e5750610a8e856102d8610b41565b610aaa5760405162461bcd60e51b815260040161034590611a2e565b6104a58585858585610e57565b610abf610b41565b6001600160a01b0316610ad0610893565b6001600160a01b031614610af65760405162461bcd60e51b815260040161034590611b58565b6001600160a01b038116610b1c5760405162461bcd60e51b8152600401610345906119bf565b610b2581610e05565b50565b6001600160e01b031981166301ffc9a760e01b14919050565b3390565b8151835114610b665760405162461bcd60e51b815260040161034590611c56565b6001600160a01b038416610b8c5760405162461bcd60e51b815260040161034590611a77565b6000610b96610b41565b9050610ba6818787878787610d0e565b60005b8451811015610ca8576000858281518110610bd457634e487b7160e01b600052603260045260246000fd5b602002602001015190506000858381518110610c0057634e487b7160e01b600052603260045260246000fd5b602090810291909101810151600084815280835260408082206001600160a01b038e168352909352919091205490915081811015610c505760405162461bcd60e51b815260040161034590611b0e565b6000838152602081815260408083206001600160a01b038e8116855292528083208585039055908b16825281208054849290610c8d908490611d44565b9250508190555050505080610ca190611dde565b9050610ba9565b50846001600160a01b0316866001600160a01b0316826001600160a01b03167f4a39dc06d4c0dbc64b70af90fd698a233a518aa5d07e595d983b8c0526c8f7fb8787604051610cf892919061188c565b60405180910390a4610d0e818787878787610f8b565b505050505050565b6001600160a01b038416610d3c5760405162461bcd60e51b815260040161034590611c9e565b6000610d46610b41565b9050610d6781600087610d5888611099565b610d6188611099565b87610d0e565b6000848152602081815260408083206001600160a01b038916845290915281208054859290610d97908490611d44565b92505081905550846001600160a01b031660006001600160a01b0316826001600160a01b03167fc3d58168c5ae7397731d063d5bbf3d657854427343f4c083240f7aacaa2d0f628787604051610dee929190611ce8565b60405180910390a46104a5816000878787876110f2565b600380546001600160a01b038381166001600160a01b0319831681179093556040519116919082907f8be0079c531659141344cd1fd0a4f28419497f9722a3daafe3b4186f6b6457e090600090a35050565b6001600160a01b038416610e7d5760405162461bcd60e51b815260040161034590611a77565b6000610e87610b41565b9050610e98818787610d5888611099565b6000848152602081815260408083206001600160a01b038a16845290915290205483811015610ed95760405162461bcd60e51b815260040161034590611b0e565b6000858152602081815260408083206001600160a01b038b8116855292528083208785039055908816825281208054869290610f16908490611d44565b92505081905550856001600160a01b0316876001600160a01b0316836001600160a01b03167fc3d58168c5ae7397731d063d5bbf3d657854427343f4c083240f7aacaa2d0f628888604051610f6c929190611ce8565b60405180910390a4610f828288888888886110f2565b50505050505050565b610f9d846001600160a01b03166111c3565b15610d0e5760405163bc197c8160e01b81526001600160a01b0385169063bc197c8190610fd690899089908890889088906004016117b2565b602060405180830381600087803b158015610ff057600080fd5b505af1925050508015611020575060408051601f3d908101601f1916820190925261101d918101906116e8565b60015b6110695761102c611e2b565b806110375750611051565b8060405162461bcd60e51b815260040161034591906118c5565b60405162461bcd60e51b8152600401610345906118d8565b6001600160e01b0319811663bc197c8160e01b14610f825760405162461bcd60e51b81526004016103459061192c565b604080516001808252818301909252606091600091906020808301908036833701905050905082816000815181106110e157634e487b7160e01b600052603260045260246000fd5b602090810291909101015292915050565b611104846001600160a01b03166111c3565b15610d0e5760405163f23a6e6160e01b81526001600160a01b0385169063f23a6e619061113d9089908990889088908890600401611834565b602060405180830381600087803b15801561115757600080fd5b505af1925050508015611187575060408051601f3d908101601f19168201909252611184918101906116e8565b60015b6111935761102c611e2b565b6001600160e01b0319811663f23a6e6160e01b14610f825760405162461bcd60e51b81526004016103459061192c565b3b151590565b8280546111d590611da3565b90600052602060002090601f0160209004810192826111f7576000855561123d565b82601f1061121057805160ff191683800117855561123d565b8280016001018555821561123d579182015b8281111561123d578251825591602001919060010190611222565b5061124992915061124d565b5090565b5b80821115611249576000815560010161124e565b600082601f830112611272578081fd5b8135602061128761128283611d20565b611cf6565b82815281810190858301838502870184018810156112a3578586fd5b855b858110156112c1578135845292840192908401906001016112a5565b5090979650505050505050565b600082601f8301126112de578081fd5b813567ffffffffffffffff8111156112f8576112f8611e0f565b61130b601f8201601f1916602001611cf6565b81815284602083860101111561131f578283fd5b816020850160208301379081016020019190915292915050565b60006020828403121561134a578081fd5b813561135581611ed0565b9392505050565b600080600080600060a08688031215611373578081fd5b853561137e81611ed0565b9450602086013561138e81611ed0565b94979496505050506040830135926060810135926080909101359150565b600080600080600080600060e0888a0312156113c6578182fd5b87356113d181611ed0565b965060208801356113e181611ed0565b955060408801359450606088013593506080880135925060a088013567ffffffffffffffff80821115611412578384fd5b61141e8b838c016112ce565b935060c08a0135915080821115611433578283fd5b506114408a828b016112ce565b91505092959891949750929550565b60008060408385031215611461578182fd5b823561146c81611ed0565b9150602083013561147c81611ed0565b809150509250929050565b600080600080600060a0868803121561149e578081fd5b85356114a981611ed0565b945060208601356114b981611ed0565b9350604086013567ffffffffffffffff808211156114d5578283fd5b6114e189838a01611262565b945060608801359150808211156114f6578283fd5b61150289838a01611262565b93506080880135915080821115611517578283fd5b50611524888289016112ce565b9150509295509295909350565b600080600080600060a08688031215611548578283fd5b853561155381611ed0565b9450602086013561156381611ed0565b93506040860135925060608601359150608086013567ffffffffffffffff81111561158c578182fd5b611524888289016112ce565b600080604083850312156115aa578182fd5b82356115b581611ed0565b9150602083013561147c81611ee5565b600080604083850312156115d7578182fd5b82356115e281611ed0565b946020939093013593505050565b60008060408385031215611602578182fd5b823567ffffffffffffffff80821115611619578384fd5b818501915085601f83011261162c578384fd5b8135602061163c61128283611d20565b82815281810190858301838502870184018b1015611658578889fd5b8896505b8487101561168357803561166f81611ed0565b83526001969096019591830191830161165c565b5096505086013592505080821115611699578283fd5b506116a685828601611262565b9150509250929050565b6000602082840312156116c1578081fd5b815161135581611ee5565b6000602082840312156116dd578081fd5b813561135581611ef3565b6000602082840312156116f9578081fd5b815161135581611ef3565b600060208284031215611715578081fd5b5035919050565b6000815180845260208085019450808401835b8381101561174b5781518752958201959082019060010161172f565b509495945050505050565b6000815180845261176e816020860160208601611d73565b601f01601f19169290920160200192915050565b60008251611794818460208701611d73565b9190910192915050565b6001600160a01b0391909116815260200190565b6001600160a01b0386811682528516602082015260a0604082018190526000906117de9083018661171c565b82810360608401526117f0818661171c565b905082810360808401526118048185611756565b98975050505050505050565b6001600160a01b039384168152919092166020820152604081019190915260600190565b6001600160a01b03868116825285166020820152604081018490526060810183905260a06080820181905260009061186e90830184611756565b979650505050505050565b600060208252611355602083018461171c565b60006040825261189f604083018561171c565b82810360208401526118b1818561171c565b95945050505050565b901515815260200190565b6000602082526113556020830184611756565b60208082526034908201527f455243313135353a207472616e7366657220746f206e6f6e20455243313135356040820152732932b1b2b4bb32b91034b6b83632b6b2b73a32b960611b606082015260800190565b60208082526028908201527f455243313135353a204552433131353552656365697665722072656a656374656040820152676420746f6b656e7360c01b606082015260800190565b6020808252602b908201527f455243313135353a2062616c616e636520717565727920666f7220746865207a60408201526a65726f206164647265737360a81b606082015260800190565b60208082526026908201527f4f776e61626c653a206e6577206f776e657220697320746865207a65726f206160408201526564647265737360d01b606082015260800190565b6020808252600f908201526e15da5d1a191c985dc819985a5b1959608a1b604082015260600190565b60208082526029908201527f455243313135353a2063616c6c6572206973206e6f74206f776e6572206e6f7260408201526808185c1c1c9bdd995960ba1b606082015260800190565b60208082526025908201527f455243313135353a207472616e7366657220746f20746865207a65726f206164604082015264647265737360d81b606082015260800190565b60208082526032908201527f455243313135353a207472616e736665722063616c6c6572206973206e6f74206040820152711bdddb995c881b9bdc88185c1c1c9bdd995960721b606082015260800190565b6020808252602a908201527f455243313135353a20696e73756666696369656e742062616c616e636520666f60408201526939103a3930b739b332b960b11b606082015260800190565b6020808252818101527f4f776e61626c653a2063616c6c6572206973206e6f7420746865206f776e6572604082015260600190565b60208082526017908201527f546f6b656e20697320616c7265616479206d696e746564000000000000000000604082015260600190565b60208082526029908201527f455243313135353a2073657474696e6720617070726f76616c20737461747573604082015268103337b91039b2b63360b91b606082015260800190565b60208082526029908201527f455243313135353a206163636f756e747320616e6420696473206c656e677468604082015268040dad2e6dac2e8c6d60bb1b606082015260800190565b60208082526028908201527f455243313135353a2069647320616e6420616d6f756e7473206c656e677468206040820152670dad2e6dac2e8c6d60c31b606082015260800190565b60208082526021908201527f455243313135353a206d696e7420746f20746865207a65726f206164647265736040820152607360f81b606082015260800190565b90815260200190565b918252602082015260400190565b60405181810167ffffffffffffffff81118282101715611d1857611d18611e0f565b604052919050565b600067ffffffffffffffff821115611d3a57611d3a611e0f565b5060209081020190565b60008219821115611d5757611d57611df9565b500190565b600082821015611d6e57611d6e611df9565b500390565b60005b83811015611d8e578181015183820152602001611d76565b83811115611d9d576000848401525b50505050565b600281046001821680611db757607f821691505b60208210811415611dd857634e487b7160e01b600052602260045260246000fd5b50919050565b6000600019821415611df257611df2611df9565b5060010190565b634e487b7160e01b600052601160045260246000fd5b634e487b7160e01b600052604160045260246000fd5b60e01c90565b600060443d1015611e3b576108a0565b600481823e6308c379a0611e4f8251611e25565b14611e59576108a0565b6040513d600319016004823e80513d67ffffffffffffffff8160248401118184111715611e8957505050506108a0565b82840192508251915080821115611ea357505050506108a0565b503d83016020828401011115611ebb575050506108a0565b601f01601f1916810160200160405291505090565b6001600160a01b0381168114610b2557600080fd5b8015158114610b2557600080fd5b6001600160e01b031981168114610b2557600080fdfea2646970667358221220f043a6dd3460ca058faf3e50511f931e40b6f30c3c8049eee37aee3fd3d2881464736f6c6343000800003360806040523480156200001157600080fd5b506040516200120d3803806200120d83398101604081905262000034916200032e565b8151829082906200004d906003906020850190620001dd565b50805162000063906004906020840190620001dd565b505050620000806200007a620000a060201b60201c565b620000a4565b62000098336b204fce5e3e25026110000000620000f6565b50506200044d565b3390565b600580546001600160a01b038381166001600160a01b0319831681179093556040519116919082907f8be0079c531659141344cd1fd0a4f28419497f9722a3daafe3b4186f6b6457e090600090a35050565b6001600160a01b038216620001285760405162461bcd60e51b81526004016200011f9062000395565b60405180910390fd5b6200013660008383620001d8565b80600260008282546200014a9190620003d5565b90915550506001600160a01b0382166000908152602081905260408120805483929062000179908490620003d5565b90915550506040516001600160a01b038316906000907fddf252ad1be2c89b69c2b068fc378daa952ba7f163c4a11628f55a4df523b3ef90620001be908590620003cc565b60405180910390a3620001d460008383620001d8565b5050565b505050565b828054620001eb90620003fa565b90600052602060002090601f0160209004810192826200020f57600085556200025a565b82601f106200022a57805160ff19168380011785556200025a565b828001600101855582156200025a579182015b828111156200025a5782518255916020019190600101906200023d565b50620002689291506200026c565b5090565b5b808211156200026857600081556001016200026d565b600082601f83011262000294578081fd5b81516001600160401b0380821115620002b157620002b162000437565b6040516020601f8401601f1916820181018381118382101715620002d957620002d962000437565b6040528382528584018101871015620002f0578485fd5b8492505b83831015620003135785830181015182840182015291820191620002f4565b838311156200032457848185840101525b5095945050505050565b6000806040838503121562000341578182fd5b82516001600160401b038082111562000358578384fd5b620003668683870162000283565b935060208501519150808211156200037c578283fd5b506200038b8582860162000283565b9150509250929050565b6020808252601f908201527f45524332303a206d696e7420746f20746865207a65726f206164647265737300604082015260600190565b90815260200190565b60008219821115620003f557634e487b7160e01b81526011600452602481fd5b500190565b6002810460018216806200040f57607f821691505b602082108114156200043157634e487b7160e01b600052602260045260246000fd5b50919050565b634e487b7160e01b600052604160045260246000fd5b610db0806200045d6000396000f3fe6080604052600436106100e85760003560e01c806370a082311161008a578063a457c2d711610059578063a457c2d71461024a578063a9059cbb1461026a578063dd62ed3e1461028a578063f2fde38b146102aa576100e8565b806370a08231146101de578063715018a6146101fe5780638da5cb5b1461021357806395d89b4114610235576100e8565b806323b872dd116100c657806323b872dd14610167578063313ce5671461018757806339509351146101a957806340c10f19146101c9576100e8565b806306fdde03146100ed578063095ea7b31461011857806318160ddd14610145575b600080fd5b3480156100f957600080fd5b506101026102ca565b60405161010f9190610a1e565b60405180910390f35b34801561012457600080fd5b506101386101333660046109d6565b61035c565b60405161010f9190610a13565b34801561015157600080fd5b5061015a610379565b60405161010f9190610d04565b34801561017357600080fd5b5061013861018236600461099b565b61037f565b34801561019357600080fd5b5061019c610418565b60405161010f9190610d0d565b3480156101b557600080fd5b506101386101c43660046109d6565b61041d565b6101dc6101d73660046109d6565b610471565b005b3480156101ea57600080fd5b5061015a6101f9366004610948565b61047f565b34801561020a57600080fd5b506101dc61049e565b34801561021f57600080fd5b506102286104e9565b60405161010f91906109ff565b34801561024157600080fd5b506101026104f8565b34801561025657600080fd5b506101386102653660046109d6565b610507565b34801561027657600080fd5b506101386102853660046109d6565b610580565b34801561029657600080fd5b5061015a6102a5366004610969565b610594565b3480156102b657600080fd5b506101dc6102c5366004610948565b6105bf565b6060600380546102d990610d3f565b80601f016020809104026020016040519081016040528092919081815260200182805461030590610d3f565b80156103525780601f1061032757610100808354040283529160200191610352565b820191906000526020600020905b81548152906001019060200180831161033557829003601f168201915b5050505050905090565b6000610370610369610630565b8484610634565b50600192915050565b60025490565b600061038c8484846106e8565b6001600160a01b0384166000908152600160205260408120816103ad610630565b6001600160a01b03166001600160a01b03168152602001908152602001600020549050828110156103f95760405162461bcd60e51b81526004016103f090610b82565b60405180910390fd5b61040d85610405610630565b858403610634565b506001949350505050565b601290565b600061037061042a610630565b848460016000610438610630565b6001600160a01b03908116825260208083019390935260409182016000908120918b168152925290205461046c9190610d1b565b610634565b61047b8282610812565b5050565b6001600160a01b0381166000908152602081905260409020545b919050565b6104a6610630565b6001600160a01b03166104b76104e9565b6001600160a01b0316146104dd5760405162461bcd60e51b81526004016103f090610bca565b6104e760006108da565b565b6005546001600160a01b031690565b6060600480546102d990610d3f565b60008060016000610516610630565b6001600160a01b03908116825260208083019390935260409182016000908120918816815292529020549050828110156105625760405162461bcd60e51b81526004016103f090610c88565b61057661056d610630565b85858403610634565b5060019392505050565b600061037061058d610630565b84846106e8565b6001600160a01b03918216600090815260016020908152604080832093909416825291909152205490565b6105c7610630565b6001600160a01b03166105d86104e9565b6001600160a01b0316146105fe5760405162461bcd60e51b81526004016103f090610bca565b6001600160a01b0381166106245760405162461bcd60e51b81526004016103f090610ab4565b61062d816108da565b50565b3390565b6001600160a01b03831661065a5760405162461bcd60e51b81526004016103f090610c44565b6001600160a01b0382166106805760405162461bcd60e51b81526004016103f090610afa565b6001600160a01b0380841660008181526001602090815260408083209487168084529490915290819020849055517f8c5be1e5ebec7d5bd14f71427d1e84f3dd0314c0f7b2291e5b200ac8c7c3b925906106db908590610d04565b60405180910390a3505050565b6001600160a01b03831661070e5760405162461bcd60e51b81526004016103f090610bff565b6001600160a01b0382166107345760405162461bcd60e51b81526004016103f090610a71565b61073f83838361092c565b6001600160a01b038316600090815260208190526040902054818110156107785760405162461bcd60e51b81526004016103f090610b3c565b6001600160a01b038085166000908152602081905260408082208585039055918516815290812080548492906107af908490610d1b565b92505081905550826001600160a01b0316846001600160a01b03167fddf252ad1be2c89b69c2b068fc378daa952ba7f163c4a11628f55a4df523b3ef846040516107f99190610d04565b60405180910390a361080c84848461092c565b50505050565b6001600160a01b0382166108385760405162461bcd60e51b81526004016103f090610ccd565b6108446000838361092c565b80600260008282546108569190610d1b565b90915550506001600160a01b03821660009081526020819052604081208054839290610883908490610d1b565b90915550506040516001600160a01b038316906000907fddf252ad1be2c89b69c2b068fc378daa952ba7f163c4a11628f55a4df523b3ef906108c6908590610d04565b60405180910390a361047b6000838361092c565b600580546001600160a01b038381166001600160a01b0319831681179093556040519116919082907f8be0079c531659141344cd1fd0a4f28419497f9722a3daafe3b4186f6b6457e090600090a35050565b505050565b80356001600160a01b038116811461049957600080fd5b600060208284031215610959578081fd5b61096282610931565b9392505050565b6000806040838503121561097b578081fd5b61098483610931565b915061099260208401610931565b90509250929050565b6000806000606084860312156109af578081fd5b6109b884610931565b92506109c660208501610931565b9150604084013590509250925092565b600080604083850312156109e8578182fd5b6109f183610931565b946020939093013593505050565b6001600160a01b0391909116815260200190565b901515815260200190565b6000602080835283518082850152825b81811015610a4a57858101830151858201604001528201610a2e565b81811115610a5b5783604083870101525b50601f01601f1916929092016040019392505050565b60208082526023908201527f45524332303a207472616e7366657220746f20746865207a65726f206164647260408201526265737360e81b606082015260800190565b60208082526026908201527f4f776e61626c653a206e6577206f776e657220697320746865207a65726f206160408201526564647265737360d01b606082015260800190565b60208082526022908201527f45524332303a20617070726f766520746f20746865207a65726f206164647265604082015261737360f01b606082015260800190565b60208082526026908201527f45524332303a207472616e7366657220616d6f756e7420657863656564732062604082015265616c616e636560d01b606082015260800190565b60208082526028908201527f45524332303a207472616e7366657220616d6f756e74206578636565647320616040820152676c6c6f77616e636560c01b606082015260800190565b6020808252818101527f4f776e61626c653a2063616c6c6572206973206e6f7420746865206f776e6572604082015260600190565b60208082526025908201527f45524332303a207472616e736665722066726f6d20746865207a65726f206164604082015264647265737360d81b606082015260800190565b60208082526024908201527f45524332303a20617070726f76652066726f6d20746865207a65726f206164646040820152637265737360e01b606082015260800190565b60208082526025908201527f45524332303a2064656372656173656420616c6c6f77616e63652062656c6f77604082015264207a65726f60d81b606082015260800190565b6020808252601f908201527f45524332303a206d696e7420746f20746865207a65726f206164647265737300604082015260600190565b90815260200190565b60ff91909116815260200190565b60008219821115610d3a57634e487b7160e01b81526011600452602481fd5b500190565b600281046001821680610d5357607f821691505b60208210811415610d7457634e487b7160e01b600052602260045260246000fd5b5091905056fea26469706673582212203464aa41772c8f8da922917b5f3be242fa91a1f956aab103962e94b5f8977d6e64736f6c6343000800003368747470733a2f2f67616d652e6578616d706c652f6170692f6974656d2f7b69647d2e6a736f6e",
  "immutableReferences": {},
  "source": "// SPDX-License-Identifier: MIT\nimport \"./LTS.sol\";\nimport \"@openzeppelin/contracts/token/ERC1155/ERC1155.sol\";\nimport \"@openzeppelin/contracts/access/Ownable.sol\";\nimport \"@openzeppelin/contracts/token/ERC20/IERC20.sol\";\n\npragma solidity ^0.8.0;\n \n\ncontract Memes is ERC1155, Ownable {\n\n  // Hashes of meme pictures on IPFS\n  string[] public hashes;\n  // Mapping for enforcing unique hashes\n  mapping(string => bool) _hashExists;\n\n  // Mapping from NFT token ID to owner\n  mapping (uint256 => address) private _tokenOwner;\n\n  // Mapping from hash to NFT token ID\n  mapping (string => address) private _hashToken;\n\n  LTS public tokenContract;\n  IERC20 tokenContract1 = IERC20(address(0xC939C6a8A525569260FE347AefF9Bbf1C1f13F9F));\n\n  event NewLTSCreated(\n      string _name,\n      string _symbol,\n      LTS _LTS,\n      address _to\n  );\n  \n  constructor() public ERC1155(\"https://game.example/api/item/{id}.json\") {\n    tokenContract = new LTS(\"Learn Time Shared\",\"LTS\");\n  }\n\n  function mint(\n    address payable from,\n    address to,\n    uint256 id,\n    uint256 amount,\n    uint256 price,\n\tstring memory _hash, \n\tstring memory _uri\n  )\n    public payable returns(bool approved)\n  {\n    require(!_hashExists[_hash], \"Token is already minted\");\n    // require(bytes(_uri).length > 0, \"uri should be set\");\n    hashes.push(_hash);\n    uint _id = hashes.length - 1;\n    bytes memory data = '';\n    \n    _mint(msg.sender, id, amount, bytes(_uri));\n    _hashExists[_hash] = true;// till here. okay.\n\n    tokenContract.transferFrom(msg.sender,address(this),amount);//this pfunction error\n\n  }\n\n  function getMemesCount() public view returns(uint256 count) {\n    return hashes.length;\n  }\n\n//   function uri(uint256 _tokenId) public view override returns(string memory _uri) {\n//     return _tokenURI(_tokenId);\n//   }\n\n//   function setTokenUri(uint256 _tokenId, string memory _uri) public onlyOwner {\n//     _setTokenURI(_tokenId, _uri);\n//   }\n\n  function safeTransferFromWithProvision(\n    address payable from,\n    address to,\n    uint256 id,\n    uint256 amount,\n    uint256 price\n  )\n    public payable returns(bool approved)\n  {\n    setApprovalForAll(to,true);\n    safeTransferFrom(from, to, id, amount, \"0x0\");\n    return isApprovedForAll(from, to);\n    //from.transfer(price);\n  }\n \n  function withdrawEth1() public onlyOwner {\n      uint256 balance = address(this).balance;\n      (bool success, ) = payable(msg.sender).call{value: balance}(\"\");\n      require(success, \"Withdraw failed\");\n  }\n\n}\n",
  "sourcePath": "C:\\tiny-nft\\contracts\\Memes.sol",
  "compiler": {
    "name": "solc",
    "version": "0.8.0+commit.c7dfd78e.Emscripten.clang"
  },
  "schemaVersion": "3.4.3",
  "updatedAt": "2022-01-09T13:46:38.997Z",
  "networkType": "ethereum",
  "devdoc": {
    "kind": "dev",
    "methods": {
      "balanceOf(address,uint256)": {
        "details": "See {IERC1155-balanceOf}. Requirements: - `account` cannot be the zero address."
      },
      "balanceOfBatch(address[],uint256[])": {
        "details": "See {IERC1155-balanceOfBatch}. Requirements: - `accounts` and `ids` must have the same length."
      },
      "isApprovedForAll(address,address)": {
        "details": "See {IERC1155-isApprovedForAll}."
      },
      "owner()": {
        "details": "Returns the address of the current owner."
      },
      "renounceOwnership()": {
        "details": "Leaves the contract without owner. It will not be possible to call `onlyOwner` functions anymore. Can only be called by the current owner. NOTE: Renouncing ownership will leave the contract without an owner, thereby removing any functionality that is only available to the owner."
      },
      "safeBatchTransferFrom(address,address,uint256[],uint256[],bytes)": {
        "details": "See {IERC1155-safeBatchTransferFrom}."
      },
      "safeTransferFrom(address,address,uint256,uint256,bytes)": {
        "details": "See {IERC1155-safeTransferFrom}."
      },
      "setApprovalForAll(address,bool)": {
        "details": "See {IERC1155-setApprovalForAll}."
      },
      "supportsInterface(bytes4)": {
        "details": "See {IERC165-supportsInterface}."
      },
      "transferOwnership(address)": {
        "details": "Transfers ownership of the contract to a new account (`newOwner`). Can only be called by the current owner."
      },
      "uri(uint256)": {
        "details": "See {IERC1155MetadataURI-uri}. This implementation returns the same URI for *all* token types. It relies on the token type ID substitution mechanism https://eips.ethereum.org/EIPS/eip-1155#metadata[defined in the EIP]. Clients calling this function must replace the `\\{id\\}` substring with the actual token type ID."
      }
    },
    "version": 1
  },
  "userdoc": {
    "kind": "user",
    "methods": {},
    "version": 1
  }
}